:020000040800F2
:10000000000002202DAA00087DAA00087DAA000891
:100010007DAA00087DAA00087DAA00080000000053
:100020000000000000000000000000003170000827
:100030007DAA000800000000D1700008F148000807
:100040007DAA00087DAA00087DAA00087DAA0008F4
:100050007DAA00087DAA00087DAA00087DAA0008E4
:100060007DAA00087DAA00087DAA00087DAA0008D4
:100070007DAA00087DAA00087DAA00087DAA0008C4
:100080007DAA00087DAA00087DAA00087DAA0008B4
:100090007DAA00087DAA00087DAA00087DAA0008A4
:1000A0007DAA00087DAA00087DAA00087DAA000894
:1000B0007DAA00087DAA00087DAA00087DAA000884
:1000C0007DAA00087DAA00087DAA00087DAA000874
:1000D0007DAA00087DAA00087DAA00087DAA000864
:1000E0007DAA00087DAA00087DAA00087DAA000854
:1000F000F94800087DAA00087DAA0008E148000828
:100100007DAA00087DAA00087DAA00087DAA000833
:100110007DAA00087DAA00087DAA00087DAA000823
:100120007DAA00087DAA00087DAA00087DAA000813
:100130007DAA00087DAA00087DAA00087DAA000803
:100140007DAA00087DAA00087DAA000809490008C8
:100150007DAA00087DAA00087DAA00087DAA0008E3
:100160007DAA00087DAA00087DAA00087DAA0008D3
:100170007DAA00087DAA00087DAA000800000000F2
:080180007DAA00087DAA000819
:1001900010B5054C237833B9044B13B10448AFF3C1
:1001A00000800123237010BDC40000200000000067
:1001B00078B400080C4B43B10C480D4910B5AFF3AF
:1001C00000800C48036823B910BD0A48036833B99E
:1001D0007047094B002BF7D0BDE810401847064B7D
:1001E000002BF5D0184700BF0000000078B40008CD
:1001F000C8000020C40000200000000010F8012BFF
:1002000011F8013B012A28BF9A42F7D0D01A704753
:1002100010B40B7803704B7843708B78CC7803EB79
:10022000042343800B7903714B7943718B7983717C
:10023000CB79C371082A16D90B7A4A7A03EB0223C9
:1002400003818B7ACA7A03EB022343810B7B4A7BBF
:1002500003EB022383818B7B8373CB7BC3730B7C88
:1002600003744B7C43745DF8044B70470B78037048
:100270004B7843708B788370CB78C3700B790371A4
:100280004B7943718B798371CB79C3710B7A03728C
:1002900070470B7803704B7843708B788370CB7802
:1002A000C3700B794A7903EB022383808B798371C6
:1002B00070474378032B00D0704710B40478023C99
:1002C000A242A8BF224694B2002305E0C218927849
:1002D00001F8012B02339BB2A342F7D300230B702A
:1002E0005DF8044BE8E730B583B00446037E013B7C
:1002F0000A2B00F23A81DFE813F00B0015004400EE
:10030000500077008500BA00C600ED00FB00240114
:10031000427900F1100101F04FFA02232376012007
:1003200003B030BD417902F0A3FD012803D00428B9
:100330001DD00120F4E7227CE38A7BB112F0800F0C
:1003400009D10523237600220321D4F8C80307F03E
:10035000ABF80120E4E703232376F4E712F0800FE3
:1003600002D107232376EEE709232376EBE70B235D
:10037000237600220321D4F8C80307F095F8012062
:10038000CEE7D0F8B833C38103798289816801F060
:100390003AFA042323760120C2E7017902F068FDCE
:1003A0000546012805D0052D0CD0042D12D00120C2
:1003B000B6E70923237600220321D4F8C80307F007
:1003C00073F8F0E700220321D4F8C80307F06CF8B3
:1003D0000320A5E70B23237600220321D4F8C803CA
:1003E00007F062F801209BE7437982890125009597
:1003F000816801F0F2F9D4F8B833E381062323765B
:1004000028468DE7417902F033FD012807D0052801
:100410000FD0022817D004281FD0012080E707231F
:10042000237600220321D4F8C80307F03DF8012009
:1004300076E70C23237600220321D4F8C80307F0C3
:1004400033F803206CE70523237600220321D4F838
:10045000C80307F029F8012062E70B232376002266
:100460000321D4F8C80307F01FF8022058E70379E6
:100470000022114601F0C7F9D4F8B833E38108230C
:10048000237601204CE7017902F0F2FC012805D027
:1004900004280DD0052815D0012041E70D2323762F
:1004A00000220321D4F8C80306F0FEFF002037E73E
:1004B0000B23237600220321D4F8C80306F0F4FFAF
:1004C00001202DE700220321D4F8C80306F0ECFF39
:1004D000032025E74379012500950022114601F00C
:1004E0007CF9D4F8B833E3810A232376284617E74A
:1004F000417902F0BDFC012805D002280DD0042866
:1005000015D001200CE70D23237600220321D4F817
:10051000C80306F0C9FF002002E709232376002262
:100520000321D4F8C80306F0BFFF0120F8E60B232F
:10053000237600220321D4F8C80306F0B5FF01207A
:10054000EEE6437E0133DBB24376022B07D9D0F8C7
:10055000C43306219847002363760220E0E602F0C8
:1005600015FC01202076A070DAE60120D8E6037899
:100570000A8813440B800378184470472DE9F04330
:1005800083B00B7803704B7843708B78CC7803EB97
:10059000042343800B7903714B7943718B79837109
:1005A000CB79C3710B7A0372092A48D9054609230E
:1005B000ADF806300C460026012E40DC6A88BDF8F6
:1005C00006309A423BD90DF106012046FFF7CFFFD6
:1005D00004464378042BEFD1B1461A2000FB06F005
:1005E0000830284421460230FFF740FE0027B84675
:1005F0001A2303FB09539B7B9F421DDA6A88BDF8CF
:1006000006309A4218D90DF106012046FFF7AFFFD8
:1006100004464378052BEAD108F101081A2000FBB3
:1006200009F000EBC8000830284421460430FFF7E9
:1006300030FE01377FB2DAE7013676B2BCE703B0AD
:10064000BDE8F08338B504468378012B03D0022B34
:100650000FD001250BE08160828101250576022300
:10066000837000220321D0F8C80306F01DFF28463E
:1006700038BDFFF738FE054620B10228F7D1012228
:10068000A270F4E70122A27000222276EFE738B5CB
:10069000BDF810508478012C04D02A461946FFF783
:1006A000D1FF38BD61F07F04047406214174428299
:1006B00002F47F44B4F5407F03D000228282C582D9
:1006C000EBE740F209428282F9E7F0B583B00446D5
:1006D00000F58E750E4600912B464FF48072002176
:1006E000FFF7D5FF074610B1384603B0F0BD3246DC
:1006F000294604F54870FFF78BFDF5E7F0B583B0A8
:1007000004460E4600F11C0500912B464FF4007282
:100710000021FFF7BCFF074610B1384603B0F0BD1B
:100720003246294604F23230FFF728FFF5E7F0B5EC
:1007300083B017461D4600F58E740093234641F49E
:1007400040720021FFF7A3FF064610B1304603B008
:10075000F0BD2A4639462046FFF7ABFDF6E708B55F
:100760008378012B04D000221146FFF76BFF08BDF0
:10077000002303740522427441828382C382F2E71C
:1007800008B58378012B04D000221146FFF75AFFE9
:1007900008BD002303740922427441828382C3820C
:1007A000F2E708B58378012B04D000221146FFF749
:1007B00049FF08BD022303740123437400234382CD
:1007C0008182C382F1E7000010B5D0F87433DC6990
:1007D000217902F005FB0D2801D0022010BDA26F87
:1007E0000C4B9A4201D0022010BDE26FA36D9A42D9
:1007F00001D0012010BD94F884302BB1012B05D01D
:10080000022B05D0012010BD002010BD012010BD1D
:10081000022010BD5553425308B5D0F87433DB693C
:100820001AB1012A05D0022008BDD979FFF7B9FF16
:1008300008BD9979FFF7B5FF08BD08B521220274FC
:10084000FF224274002141828182C1820A46FFF761
:10085000F9FE08BD08B5A1220274FE2242740022EE
:10086000428282820122C282FFF7ECFE08BD0000B4
:10087000D0F87433DB69054A5A65054A9A65012246
:1008800083F8502083F8522000207047555342438C
:100890005040302070B582B00546D0F87433DC6922
:1008A00094F85030013B0A2B00F25B81DFE813F033
:1008B0000B001B0054005F009700A300E900F40048
:1008C0001B012D014F0184F86110022384F8503080
:1008D0006379012600961F2204F1540100F0A3FF62
:1008E000304602B070BD617902F0C2FA012805D02D
:1008F00002281CD0052824D00126F1E7E36D5BB166
:1009000094F96030002B03DB052384F8503006E0B7
:10091000032384F8503002E0072384F8503000228B
:100920000221D5F8C80306F0BFFD0126D8E701264D
:1009300084F8506000220221D5F8C80306F0B4FD07
:10094000CEE70A2384F8503000220221D5F8C803EC
:1009500006F0AAFD0126C3E723796289D4F88C103A
:1009600000F077FF042384F850300126B8E721799E
:1009700002F07EFA012803D0052825D00126AFE732
:10098000E36D6289934211D9D4F88C101144C4F8F4
:100990008C109B1AE365E36D5BB123796289D4F80F
:1009A0008C10284600F055FF012699E70023E365E7
:1009B000F1E7072384F8503000220221D5F8C8035C
:1009C00006F072FD01268BE7092384F850300022DF
:1009D0000221D5F8C80306F067FD012680E7637998
:1009E0002289D4F88C100126009600F01CFF062303
:1009F00084F8503074E7617902F03AFA012805D0A2
:100A0000022828D0052831D0012669E7E36D228924
:100A1000934213D9D4F88C101144C4F88C109B1A4B
:100A2000E365E36D6BB9072384F85030002202219F
:100A3000D5F8C80306F038FD012651E70023E36529
:100A4000EFE763792289D4F88C10012000902846C2
:100A500000F0E9FEEAE7052384F850300022022185
:100A6000D5F8C80306F020FD012639E70A2384F8EB
:100A7000503000220221D5F8C80306F015FD0126EA
:100A80002EE723790D2204F1780100F0E2FE08231D
:100A900084F85030012623E7217902F0E9F9012892
:100AA00003D0052814D001261AE7012384F850301A
:100AB00084F852302846FFF787FE38B1022600221C
:100AC0000221D5F8C80306F0EFFC09E70026F6E797
:100AD000092384F8503000220221D5F8C80306F01B
:100AE000E3FC0126FCE60022FFF796FE18B104287D
:100AF00006D00126F4E6072384F850300126EFE6FD
:100B00000B2384F850300126EAE60122FFF784FE29
:100B100018B1042816D00126E2E66179284602F0D1
:100B2000CCF9C0F10102D2B26179284602F0ACF9E9
:100B300000222179284602F0A7F9092384F85030D1
:100B40000126CDE60B2384F850300126C8E6FFF7D6
:100B500074FE064600287FF4C3AE012384F85030AB
:100B6000BEE60126BCE600207047000008B501463D
:100B7000034801F0B5FF08B9012008BD002008BDF9
:100B80003857002011F0030F01D00120704730B515
:100B900091B01D460B460446009501460B4801F0F6
:100BA000D3FF10B9002011B030BD03AA2146074879
:100BB00001F0A8FF9DF81930282B05D03A2B03D05F
:100BC000042B01D00120EEE70320ECE7385700208A
:100BD00010B58EB01446032923D8DFE801F00205D2
:100BE0000E1800200EB010BD01AA0146114801F0F8
:100BF00089FFC0B9029B2360F4E701AA01460D48B2
:100C000001F080FF88B9BDF80C302360EAE701AA43
:100C10000146084801F076FF48B9BDF80C30236062
:100C2000E0E70420DEE70120DCE70120DAE701202D
:100C3000D8E700BF3857002011F0030F01D0012082
:100C4000704730B591B01D460B46044600950146ED
:100C50000E4801F0C2FF10B9002011B030BD03AA48
:100C600021460A4801F04EFF9DF81930272B0AD083
:100C700005D9282B01D03A2B03D10320EDE7042B13
:100C8000FBD00120E9E70220E7E700BF385700204A
:100C9000074AD36823F4E0631B041B0C000200F432
:100CA000E060184340F0BF6040F40030D06070470F
:100CB00000ED00E030B4164BDB68C3F30223C3F150
:100CC0000704042C28BF04241D1D062D17D9033B3F
:100CD000012505FA04F4013C2140994005FA03F38B
:100CE000013B1340194300280BDB0901C9B200F195
:100CF000604000F5614080F8001330BC704700236D
:100D0000E6E700F00F000901C9B2024B1954F4E7FD
:100D100000ED00E014ED00E0420900F01F000123A7
:100D200003FA00F0014B43F82200704700E100E0B5
:100D30000138B0F1807F0AD2064B5860F021064A94
:100D400082F823100020986007221A607047012063
:100D5000704700BF10E000E000ED00E0042805D07F
:100D6000054A136823F0040313607047024A1368AE
:100D700043F004031360704710E000E084B010B546
:100D8000044603A880E80E00089B012B11D0E368FD
:100D900043F04003E360204600F0A6F84FF48033B0
:100DA000A363069B012B1ED00020BDE8104004B0B9
:100DB0007047A36B23F48033A363E36823F48403B5
:100DC00023F04003E360E36823F44013E3600F9BE8
:100DD000012B03D0204600F087F8E2E7E36843F4F4
:100DE0008013E360F6E7A36843F00603A360A368FB
:100DF00043F02003A360D7E7836843F001038360D7
:100E000000207047836823F001038360002070474F
:100E100008B5C36823F0C043C360012909D019B9DC
:100E2000C36843F08043C360322002F0D1FD00204C
:100E300008BDC36843F00053C360F5E7890141F082
:100E40002001016100230133054A934205D802695C
:100E500012F0200FF7D1002070470320704700BF29
:100E6000400D03001023036100230133054A934220
:100E700005D8026912F0100FF7D100207047032047
:100E8000704700BF400D030070B49DF80C4064B97A
:100E900003339E0807E000EB023303F5805351F85B
:100EA000045B1D600134B442F5D3002070BC704770
:100EB00003329208002393420CD210B400F5805400
:100EC000246841F8044B01339342F7D308465DF898
:100ED000044B70470846704742698069104070476C
:100EE000406900F001007047002301330C4A93422F
:100EF00011D80269002AF8DA036943F0010303619B
:100F000000230133064A934207D8026912F0010F09
:100F1000F7D100207047032070470320704700BFBF
:100F2000400D030084B038B5044605A880E80E00E3
:100F300025460023C4F8003EA36B23F48023A3635B
:100F4000A36B23F40023A363A36B43F40013A363F5
:100F5000079B032B0ED0D4F8003423F00403C4F80D
:100F6000003410212046FFF769FF2046FFF77AFF83
:100F7000002213E0B4F1A04FEDD0D4F8003443F0D8
:100F80000403C4F80034ECE705EB42134FF0FF31E3
:100F9000C3F808150021C3F80C150132069B9A42CC
:100FA000F2D30121204600F06DF8C82002F010FDB8
:100FB0000023A3614FF0FF336361B4F1A04F17D05A
:100FC0004FF40073636203F18073A3620D4BC4F8A6
:100FD0000031089B1BB9A36943F01003A361A26908
:100FE000094B1343A3610020BDE8384004B07047AB
:100FF0008023636203F5C003A362044BC4F800318D
:10100000E7E700BF0003E000080020A3E000400085
:1010100010B400F58064D0F8003423F00303C0F866
:101020000034D0F8003401F003021343C0F8003458
:10103000012905D0022907D000205DF8044B704734
:101040004BF680336360F7E741F270736360F3E758
:1010500010B582B00446D0F840340193019B23F0D0
:101060002E030193019B43F48073C0F840340A209F
:1010700002F0AEFC019B23F48073C4F840340020DE
:1010800002B010BD82B0D0F840340193019B23F030
:101090002E030193019B13F4805F01D101290CD031
:1010A000019B13F4805F05D021B9019B23F4805389
:1010B000C0F84034002002B07047019B43F48053D5
:1010C000C0F84034ECE782B0D0F840340193019886
:1010D000C0F3414002B0704700F58060806880B284
:1010E0007047F0B59DF8184000EB411505F5A06676
:1010F0004FF0FF37B760032C1CD8DFE804F0024F35
:10110000021540F29D47F76012F0800F07D1B0F151
:10111000A04F0FD0F76847F06007F7600AE0F76864
:1011200047F48077F76005E040F29D67F76012F0C2
:10113000800F2ED100F5806ED0F81864012707FAD1
:1011400001F13143C0F81814816941F000718161E7
:101150009B0503F0FE53D10201F4F0410B4312F062
:10116000800F26D100221A439DF81430022B23D081
:1011700000231343A20402F440221343BDF81C20B1
:10118000C2F30A021343C5F80035032C17D0002020
:10119000F0BDF76847F48077F760CBE740F225278A
:1011A000F76012F0800FC5D0F76847F4C077F7609A
:1011B000C0E74FF40042D6E74FF40033D9E7D5F843
:1011C000003543F00053C5F80035E0E780B58AB03C
:1011D00002AFF860B9601346FB7100237B770023F0
:1011E0007B830023FB834FF480733B8300237B616D
:1011F000FB68B3F1A04F2BD0BB681B79002B27D124
:10120000FB79002B0BD1BB685B79012B07D1BB6845
:101210005B781946F86800F00FFA00230DE1FB79BE
:10122000012B15D1BB685B785A01FB68134403F5A9
:10123000A0631946BB685B785A01FB68134403F549
:10124000A063DB6823F06003CB60BB6800225A71A7
:10125000BB681B69002B19D0BB681B69BA6812896F
:101260001344013BBA681289B3FBF2F3FB83FA8B98
:101270003B8B9A420CD93B8BFB83FB8BBA68128960
:1012800002FB03F31A46BB681A6101E00123FB83EA
:10129000BB68DB78002B07D0FB8BBA68128902FB96
:1012A00003F31A46BB681A61BB685B785A01FB6896
:1012B000134403F5A0631946BB681B69C3F312020C
:1012C000FB8BDB0418465F4B03401A43BB689B7AD9
:1012D0005B0703F0C04313430B61FB79002B0AD07B
:1012E000BB685B785A01FB68134403F5A0631A4698
:1012F000BB68DB685361FB6803F580639B6803F0A0
:101300000103002B0CBF01230023DBB27B77BB68FA
:101310005B785A01FB68134403F5A0631946BB6868
:101320005B785A01FB68134403F5A0631B6823F044
:1013300000530B60BB685B785A01FB68134403F5EC
:10134000A0631946BB685B785A01FB68134403F538
:10135000A0631B687A7F520713430B60BB685B78FE
:101360005A01FB68134403F5A0631B687B617B692A
:1013700023F080437B617B6943F000437B61BB6862
:101380005B785A01FB68134403F5A0631A467B6936
:101390001360FB79002B4FD1BB68DB78002B4BD15E
:1013A000BB681B69002B47D0BB68DB79032B31D8A6
:1013B00001A252F823F000BFC9130008ED13000882
:1013C000C9130008ED130008BB681B6903339B08B1
:1013D0007B837A8BFB68DB6A9BB29A421CD9FB68E1
:1013E0009B6943F02002FB689A6115E0BB681B69AA
:1013F00003339B087B837A8BFB6803F580631B694F
:101400009BB29A420AD9FB689B6943F08062FB68F1
:101410009A6103E000BF02E000BF00E000BFBB68CC
:10142000D968BB685A78BB681B6998B200230093DF
:101430000346F868FFF728FD002318462037BD460D
:1014400080BD00BF0000F81F80B483B000AF78609B
:101450007B6803F580635B699BB218460C37BD4619
:101460005DF8047B704780B485B000AF78600B46B0
:10147000FB700023FB60FB785A017B68134403F583
:10148000A0631B689B0C03F00303002B0BD0FB78BD
:101490005A017B68134403F5A0631B689B0C03F09F
:1014A0000303022B60D1FB785A017B68134403F5D8
:1014B000A0631946FB785A017B68134403F5A063C7
:1014C0001B6843F080430B607B68DB6A03F47F0397
:1014D000002B35D1FB785A017B68134403F5A063D8
:1014E0001946FB785A017B68134403F5A0631B6817
:1014F00023F000430B60FB785A017B68134403F52B
:10150000A0631946FB785A017B68134403F5A06376
:101510001B6843F000430B60FB680133FB60FB6812
:10152000B3F57A7F1ED8FB785A017B68134403F524
:10153000A0631B6803F00043B3F1004FECD074E0EC
:10154000FB785A017B68134403F5A0631946FB78C6
:101550005A017B68134403F5A0631B6843F0004302
:101560000B6062E000BF60E0FB785A017B681344C7
:1015700003F5A0631946FB785A017B68134403F511
:10158000A0631B6843F080430B607B6803F58063B6
:101590001B699BB2002B35D1FB785A017B68134441
:1015A00003F5A0631946FB785A017B68134403F5E1
:1015B000A0631B6823F000430B60FB785A017B6833
:1015C000134403F5A0631946FB785A017B68134462
:1015D00003F5A0631B6843F000430B60FB68013315
:1015E000FB60FB68B3F57A7F1ED8FB785A017B68F5
:1015F000134403F5A0631B6803F00043B3F1004FED
:10160000ECD012E0FB785A017B68134403F5A06329
:101610001946FB785A017B68134403F5A0631B68E5
:1016200043F000430B6000E000BF0023184614376E
:10163000BD465DF8047B704780B485B000AF78602C
:101640000B46FB700123FB730023BB60FB785A0140
:101650007B68134403F5A0631A46FB7BDB04194641
:10166000124B0B4043F000431361FB785A017B6837
:10167000134403F5A0631B68BB60BB6823F0804381
:10168000BB60BB6843F00043BB60FB785A017B68DA
:10169000134403F5A0631A46BB6813600023184681
:1016A0001437BD465DF8047B704700BF0000F81F8B
:1016B00080B586B000AF786000233B617868FFF7A3
:1016C000A1FB10217868FFF7B9FB7868FFF7CAFB28
:1016D0000023FB751FE0FB7D5A017B68134403F573
:1016E000A0631B68FB60FB6843F08043FB60FB6802
:1016F00023F00043FB60FB6823F40043FB60FB7DA9
:101700005A017B68134403F5A0631A46FB68136013
:10171000FB7D0133FB75FB7D0F2BDCD90023FB75B3
:1017200034E0FB7D5A017B68134403F5A0631B681A
:10173000FB60FB6843F08043FB60FB6843F00043C1
:10174000FB60FB6823F40043FB60FB7D5A017B6870
:10175000134403F5A0631A46FB6813603B69013329
:101760003B613B69B3F57A7F0CD8FB7D5A017B68FE
:10177000134403F5A0631B6803F00043B3F1004F6B
:10178000ECD000E000BFFB7D0133FB75FB7D0F2B30
:10179000C7D97B6803F580631A464FF0FF33536166
:1017A0007B684FF0FF325A617868FFF725FB002312
:1017B00018461837BD4680BD30B585B015460024A3
:1017C000039408230293019100942346224629465C
:1017D00001F033FB204605B030BD30B585B00C4676
:1017E00019469DF8203090F81D5305B1002303934E
:1017F000029201940123009300231A4601F01DFB7D
:10180000002005B030BD30B585B01D4600240394DE
:1018100002920191012200922346294601F00DFB1C
:10182000204605B030BD30B585B00C4619469DF850
:10183000203090F81D5305B10023039302920194C8
:10184000012300930223002201F0F7FA002005B0E3
:1018500030BD30B585B01D4600240394029201913D
:10186000012200920223294601F0E7FA204605B042
:1018700030BD000000B583B002A901F8010D4FF49E
:101880007A730122024800F0E4FD03B05DF804FB26
:10189000585100202DE9F04F8DB000240194594B90
:1018A0001A6B42F010021A631A6B02F010020192D6
:1018B000019A02941A6B42F004021A631A6B02F046
:1018C00004020292029A03941A6B42F080021A6395
:1018D0001A6B02F080020392039A04941A6B42F08E
:1018E00001021A631A6B02F001020492049A059431
:1018F0001A6B42F002021A631A6B02F0020205929E
:10190000059A06941A6B42F008021A631B6B03F0E7
:1019100008030693069B3C4E22460821304607F0FA
:10192000F5FEDFF8EC8022460121404607F0EEFE8E
:10193000364F22464FF21001384607F0E7FE0823E3
:1019400007930125089509940A9407A9304607F0E2
:10195000F7FD0795089509940A9407A9404607F0F2
:10196000EFFD0795DFF8AC80CDF820800994DFF813
:10197000A8A007A9504607F0E3FDE02307934FF026
:101980000209CDF8209009940A9405230B9307A926
:10199000504607F0D5FD4FF0040BCDF81CB008946D
:1019A00009940AF5806A07A9504607F0C9FD4FF26D
:1019B00010030793089509940A9407A9384607F07D
:1019C000BFFD202307930894099407A9384607F020
:1019D000B7FD4FF4107307931223089309950A94E7
:1019E000CDF82CB007A9504607F0AAFDCDF81C9001
:1019F000CDF82080099407A9304607F0A1FD0DB06D
:101A0000BDE8F08F0038024000100240000C024098
:101A10000008024000001210000002400122014BA9
:101A20001A707047EC00002008B50222034B1A70B0
:101A30004FF40061024807F0FDFF08BDEC000020F4
:101A4000383F0020FEE708B502464621042008F092
:101A5000E1F808BD08B5012007F0F6FF08BD70B534
:101A60001E4605E0551C1078FFF704FF2A46234662
:101A70005C1E002BF6D1304670BD000010B5044648
:101A80002E2109F065F918B1844203D0013010BD50
:101A9000014810BD004810BDB0B5000808B5026887
:101AA000034B9A4200D008BD01F084FFFBE700BF62
:101AB000001C0040FEE7000030B583B00446002360
:101AC0000193364809F02CF90122354B1A60204663
:101AD000FFF7B9FFD8B9334D0021284607F0D2FAF5
:101AE000314C01AB4FF480522146284607F02AF9C9
:101AF0002E4B1B68019A9B1A2D4A13602D4809F042
:101B00000FF94FF48051204607F074FF1CE08F213D
:101B10002948FFF7CFFF01AB4FF40062224921486B
:101B200007F010F90022254B1A7017E001AB4FF4B3
:101B3000006223491B4807F005F900221F4B1A7069
:101B400011E000221A4B1A60194B1B68B3B1002335
:101B500001931A4B1B78DBB2012BDCD0174B1B789F
:101B6000DBB2022BE2D0124B1B68B3F5006FE8D951
:101B70000F4A136801995B1A1360E5E7114809F0F1
:101B8000CFF80024064B1C60FFF764FF054807F000
:101B90005BFA074B1C6003B030BD00BF1CB50008EA
:101BA000E000002098510020383F0020E80000208D
:101BB000E400002044B5000830B50008EC00002027
:101BC0003847002054B5000810B58CB00C460023EF
:101BD0000B9301460E4807F024FC08B10CB010BD71
:101BE000012221460B4806F0B7FF0028F6D10A482B
:101BF00009F096F80BAB2C226946064807F0A2F8CC
:101C0000064B019A1A600698FFF756FFE6E700BFF9
:101C1000384F00209851002064B50008E8000020EB
:101C200010B5ADF50E7D04460146684607F0F9FB98
:101C30000246F8B988A9684607F049FC0246C8B9C7
:101C40009DF82932B3B12E2BF4D09DF8283213F031
:101C5000100FEFD10DF22920FFF710FF01460748C2
:101C6000FEF7CCFA0028E5D10DF229212046FFF736
:101C7000ABFFDFE710460DF50E7D10BD74B5000813
:101C800000B5ADF50F7D05F027FE00F0CFF900227D
:101C90000C4901A806F01AFF0B4809F041F80B4B5C
:101CA0001B78022BFBD14FF4FA6005F064FB084867
:101CB00009F036F80348FFF7B3FF012005F05BFB9E
:101CC000FBE700BFB0B50008E0B400083C3E0020D0
:101CD000F8B4000808B50B480B4B03604FF4E13330
:101CE000436000238360C36003610C22426183610F
:101CF000C36100F07FFB00B908BD4FF49671034843
:101D0000FFF7D8FE5851002000440040D4B400082A
:101D100008B50C480C4B03604FF40073436000237C
:101D20008360C36003614AF6444242618361C361D8
:101D3000036204F03BFA00B908BD4FF48471034814
:101D4000FFF7B8FEC453002000380040D4B40008A8
:101D500008B50C480C4B03604FF40072426000233E
:101D60008360C36002614AF6444242618361C36199
:101D7000036204F01BFA00B908BD4FF48D710348EB
:101D8000FFF798FE0C540020003C0040D4B400083B
:101D900000B599B000210191324B1A6C42F080528B
:101DA0001A641B6C03F080530193019B02912E4B2C
:101DB0001A6842F480421A601B6803F4804302935D
:101DC000029B01230C934FF480330D930223129353
:101DD0004FF48002139204221492A82215921693B3
:101DE000072317930CA801F005FE70BB0F23079380
:101DF00002230893002309934FF4A0530A934FF44E
:101E000080530B93052107A802F016F808BB0123A5
:101E10000393C02304930223059303A801F098FCC5
:101E2000D8B902F0D7F8114BA3FB00308009FEF7B8
:101E30007FFF0420FEF792FF00220F214FF0FF30BA
:101E4000FEF738FF19B05DF804FBD5210848FFF70D
:101E500031FEE3210648FFF72DFEEB210448FFF792
:101E600029FE00BF0038024000700040D34D6210D0
:101E7000D4B4000800B587B001F082FDFFF788FFF9
:101E8000FFF708FDFFF726FFFFF742FFFFF760FFB0
:101E900001AC074D0FCD0FC42B682360002101A8B2
:101EA00005F04FFA034B186005F046FAFEE700BF55
:101EB00090B40008343F002008B50320FEF7E8FE88
:101EC000002211466FF00B00FEF7F4FE00221146CF
:101ED0006FF00A00FEF7EEFE002211466FF00900D7
:101EE000FEF7E8FE002211466FF00400FEF7E2FE66
:101EF000002211466FF00300FEF7DCFE00220F21E6
:101F00006FF00100FEF7D6FE00220F214FF0FF30E8
:101F1000FEF7D0FE08BD000070B588B00368284AFF
:101F2000934204D0274A934225D008B070BD0024C4
:101F30000194254B1A6C42F480421A641B6C03F422
:101F400080430193019B0823039302260496059482
:101F500006940525079503A91C4807F0F1FA4FF4EC
:101F6000A0530393049605940694079503A9184873
:101F700007F0E6FAD9E700240294134B1A6C42F4F6
:101F800000421A641B6C03F400430293029B10236B
:101F9000039302260496059406940625079503A943
:101FA0000C4807F0CDFA4FF4A4530393049605941C
:101FB0000694079503A9054807F0C2FAB5E700BFE4
:101FC00000380040003C0040003802400008024059
:101FD00000040240000002400268114B9A4200D007
:101FE000704700B587B0002300930E4B1A6C42F483
:101FF00000321A641B6C03F400330093009B0C2323
:1020000001930223029301230393032304930723E1
:10201000059301A9044807F093FA07B05DF804FBA3
:1020200000440040003802400000024008B5034967
:10203000034807F097FB034B187008BD5454002069
:10204000C0B4000858540020002070472DE9F04724
:1020500004460268136923F44053C1680B431361BB
:102060000168CB6823F4164323F00C0382680069EF
:10207000024360690243E06902431343CB60226874
:10208000536923F44073A1690B435361E369B3F5CA
:10209000004F62D0D4F80080BB4B984500F01B8104
:1020A00003F58063984500F0168101F099FF00EB7D
:1020B000800000EB80006568AD00B0FBF5F5B34F24
:1020C000A7FB05356D092E0101F08AFF00EB8000AA
:1020D00000EB80006568AD00B0FBF5FA01F080FF11
:1020E00000EB800000EB80006568AD00B0FBF5F50B
:1020F000A7FB05356D094FF0640909FB15A52D01F6
:102100003235A7FB05356D0905F0F005354401F0C2
:1021100067FF00EB800000EB80006668B600B0FB54
:10212000F6F601F05DFF00EB800000EB80006368D5
:102130009B00B0FBF3F0A7FB0030400909FB1069DE
:102140004FEA091909F13209A7FB0937C7F3431709
:102150002F44C8F80870BDE8F087D4F8008003F178
:10216000804303F5104398455CD003F580639845A0
:1021700058D001F035FF00EB800000EB800065686F
:102180006D00B0FBF5F5814FA7FB05356D092E01FC
:1021900001F026FF00EB800000EB800065686D0019
:1021A000B0FBF5FA01F01CFF00EB800000EB8000B3
:1021B00065686D00B0FBF5F5A7FB05356D094FF0BF
:1021C000640909FB15A5ED003235A7FB05356D093E
:1021D0006D0005F4F875354401F002FF00EB800056
:1021E00000EB800066687600B0FBF6F601F0F8FEC2
:1021F00000EB800000EB800063685B00B0FBF3F352
:10220000A7FB03235B0909FB13694FEAC90909F11D
:102210003209A7FB0937C7F342172F44C8F80870E3
:10222000BDE8F08701F0F2FE00EB800000EB8000DB
:1022300065686D00B0FBF5F5544FA7FB05356D09DA
:102240002E0101F0E3FE00EB800000EB80006568EA
:102250006D00B0FBF5FA01F0D9FE00EB800000EB59
:10226000800065686D00B0FBF5F5A7FB05356D09CD
:102270004FF0640909FB15A5ED003235A7FB0535C4
:102280006D096D0005F4F875354401F0BFFE00EBF3
:10229000800000EB800066687600B0FBF6F601F087
:1022A000B5FE00EB800000EB800063685B00B0FBD4
:1022B000F3F3A7FB03235B0909FB13694FEAC90981
:1022C00009F13209A7FB0937C7F342172F44C8F8B1
:1022D0000870BDE8F08701F099FE00EB800000EB8C
:1022E00080006568AD00B0FBF5F5284FA7FB05350C
:1022F0006D092E0101F08AFE00EB800000EB8000EA
:102300006568AD00B0FBF5FA01F080FE00EB8000DF
:1023100000EB80006568AD00B0FBF5F5A7FB053567
:102320006D094FF0640909FB15A52D013235A7FB96
:1023300005356D0905F0F005354401F067FE00EB49
:10234000800000EB80006668B600B0FBF6F601F096
:102350005DFE00EB800000EB800063689B00B0FB3B
:10236000F3F3A7FB03235B0909FB13694FEA091980
:1023700009F13209A7FB0937C7F343172F44C8F8FF
:102380000870BDE8F08700BF001001401F85EB51C9
:102390002DE9F04105460F4616469846069C2B68E7
:1023A0001B6837EA03030CBF01230023B3421ED18D
:1023B000B4F1FF3FF3D02CB101F004FBA0EB080017
:1023C0008442ECD22A68D36823F4D073D3602A689D
:1023D000536923F001035361202385F8393085F8D0
:1023E0003A30002385F838300320BDE8F081002022
:1023F000BDE8F08158B310B5044690F839300BB3FE
:10240000242384F839302268D36823F40053D3603E
:102410002046FFF71BFE2268136923F490431361E3
:102420002268536923F02A0353612268D36843F476
:102430000053D3600020E063202384F8393084F80F
:102440003A3010BD80F83830FFF7C6FDD8E70120DC
:1024500070472DE9F04182B01E4690F83930DBB26A
:10246000202B04D00223184602B0BDE8F0810446B8
:102470000D469046002955D0002A55D090F83830A6
:10248000012B01D10223EEE7012380F8383000232D
:10249000C363212380F8393001F094FA0746A4F889
:1024A0002480A4F8268010E000963B46002280217C
:1024B0002046FFF76DFF002838D122682B88C3F330
:1024C000080353602369CBB90235E38C9BB2BBB1DF
:1024D000E38C9BB2013B9BB2E384A368B3F5805FBE
:1024E000E2D000963B46002280212046FFF750FFB5
:1024F000F0B923682A785A600135E6E70135E4E748
:1025000000963B46002240212046FFF741FF03464C
:1025100008B10323A7E7202284F83920002284F899
:102520003820A0E701239EE701239CE703239AE7D5
:10253000032398E70020704770B5D0F87433DC6946
:10254000237B23B1012B00F04681012070BD05469D
:10255000B4F8F8102368994280F02C81342303FBEF
:102560000143012283F8912093F89030082B00F268
:102570001981DFE813F00900170141009A001300E8
:10258000CC00170117011401342303FB014304227B
:1025900083F89020D0F8B833C4F8FC30342202FB22
:1025A00001F2983222440732C9B2284601F0D0FD28
:1025B000034638B9B4F8F820342101FB0242022165
:1025C00082F89010022B0ED0042B40F0EB80B4F870
:1025D000F830342202FB0344012384F890300223B4
:1025E00084F89130DEE0B4F8F830342202FB034482
:1025F000052384F89030D5E0C9B201F03BFD0246D6
:10260000C0B9B4F8F830342101FB034191F89210BD
:1026100009B3342101FB0341012081F8C1003421B9
:1026200001FB0343032183F89010002183F89110EC
:1026300083F89210022A15D0042A40F0B380B4F82F
:10264000F830342202FB0344012384F89030022343
:1026500084F89130A6E0342101FB0341002081F889
:10266000C100DCE7B4F8F830342202FB034292F8F0
:102670009220022A12D0342202FB0342012182F866
:10268000C110342202FB0344052384F89030012357
:1026900084F89130022384F8923083E0342202FBE4
:1026A0000342002182F8C110EBE7342202FB01F261
:1026B000903222440432C9B201F003FD70B9B4F87B
:1026C000F830342202FB0342012182F890100021ED
:1026D00082F891100133A4F8F83063E002280DD09D
:1026E00004285FD1B4F8F830342202FB03440123FC
:1026F00084F89030022384F8913053E0B4F8F83035
:10270000342202FB0344052384F890304AE034224B
:1027100002FB01F2983222440432C9B201F080FD7A
:10272000024698B9B4F8F830342101FB034191F81E
:102730009C1006291AD0022918D0342101FB03412C
:10274000012081F890000344A4F8F830022A1DD03B
:10275000042A27D1B4F8F830342202FB03440123C1
:1027600084F89030022384F891301BE0D5F8B81338
:10277000D4F8FC00091A42F20F708142DDD83422ED
:1027800002FB0343022283F890200BE0B4F8F830F8
:10279000342202FB0344082384F8903002E0013124
:1027A000A4F8F81000220421D5F8C80304F07CFE38
:1027B000012070BD0022A4F8F82001262673042110
:1027C000D0F8C80304F070FED5F8C43302212846BF
:1027D0009847304670BD002070BD38B5D0F87433CE
:1027E000DC69A37B022B04D0032B1ED00BB101208C
:1027F00038BD2146FEF72EF8032805D0F0B925781C
:102800000135256000230DE000202060F6E734222A
:1028100002FB0342022182F89210002182F8C110CB
:102820000133DBB29D42F2D838BD0021FDF7B9FF7C
:1028300018B9E37BA373012038BD012038BD38B53A
:102840000446D0F87433DD69697969B92979A1B989
:10285000D4F87433D86928B108F03EF9D4F8743349
:102860000022DA61002038BD02F0DBFD69792046E4
:1028700002F0EEFD00236B71E8E7204602F0D1FD87
:102880002979204602F0E4FD00232B71E0E7F0B542
:1028900085B00446D0F8741350230622097900F05D
:1028A00092FDFF2802D1022005B0F0BD014620466E
:1028B00000F07FFDD4F874534FF4807008F004F9F1
:1028C000E861D4F87433DD6994F81F331A2202FBEF
:1028D000034393F8483313F0800F5DD1AB7194F844
:1028E0001F331A2202FB0343B3F84A332B8194F8B7
:1028F0001F331A2202FB034393F8503313F0800F67
:1029000053D1AB7194F81F331A2202FB0343B3F87F
:1029100052332B810026A5F8F860A5F8FA602E73D3
:102920006E73AE73A979204602F080FD6871E97973
:10293000204602F07BFD28712046FDF799FF6822B2
:10294000314605F1900008F0DAF894F81C33AA79C2
:102950006979288902900227019794F81D03009055
:10296000204602F04EFD94F81C33EA7929796889F3
:102970000290019794F81D030090204602F041FD5B
:1029800032462979204600F07FFA3246697920469E
:1029900000F07AFA304687E7EB7194F81F3302FBB8
:1029A0000343B3F84A336B81A1E7EB7194F81F330B
:1029B00002FB0343B3F852336B81ABE7F0B583B04E
:1029C00005460C46D0F87433DF69342303FB0173EA
:1029D00093F89030062B05D0072B2FD0052B57D01E
:1029E000012612E000220092134601F0AAFC0646DE
:1029F00070B9342303FB0474012384F8903000225F
:102A00000421D5F8C80304F04FFD304603B0F0BDF3
:102A1000022803D0042809D00126F0E7342303FB61
:102A20000474052384F890300126E8E7342303FB7F
:102A30000474082384F890300226E0E70022009214
:102A4000134601F037FC064660B9342303FB0474D7
:102A5000012384F8903000220421D5F8C80304F043
:102A600023FDD2E7022803D0042809D00126F2E78B
:102A7000342303FB0474052384F890300126EAE72D
:102A8000342303FB0474082384F890300226E2E721
:102A9000342202FB01F298323A44043201F0C0FBC6
:102AA000034698B9342202FB0472012182F8901087
:102AB000022682F89160022B01D0042B08D000225C
:102AC0000421D5F8C80304F0EFFC9EE70126F2E7E5
:102AD000342303FB0474082384F890300226EEE7C5
:102AE000D0F87433DA690378DBB20A2B01D0002006
:102AF0007047342303FB012191F89100B0FA80F074
:102B00004009704770B4D0F87433DC690378DBB2E5
:102B10000A2B02D0022070BC7047342303FB01F162
:102B200090310C4404F1300326686568A068E168C0
:102B3000166055609060D160103410329C42F3D121
:102B4000236813600020E6E7F0B583B0D0F8744343
:102B5000E56990F81E4314B9022003B0F0BD047873
:102B6000E4B20A2C01D00220F7E7342404FB01541C
:102B700094F89040012C01D00220EEE70C46064666
:102B800006202873342101FB045181F89000A5F838
:102B9000FA40089900912146304601F0D2FBD6F860
:102BA000B87321463046FFF709FF012811D1D6F846
:102BB000B823D21B42F21073089903FB01F39A4227
:102BC00003D896F81E33002BEBD101232B73022080
:102BD000C3E701232B730020BFE7F0B583B0D0F823
:102BE0007443E56990F81E4314B9022003B0F0BDA8
:102BF0000478E4B20A2C01D00220F7E7342404FB65
:102C0000015494F89040012C01D00220EEE70C46CC
:102C1000064607202873342101FB045181F89000F7
:102C2000A5F8FA40089900912146304601F042FB90
:102C3000D6F8B87321463046FFF7C0FE012811D1FF
:102C4000D6F8B823D21B42F21073089903FB01F3A4
:102C50009A4203D896F81E33002BEBD101232B7335
:102C60000220C3E701232B730020BFE70368B3F101
:102C7000A04F00D0704730B587B04FF40073019378
:102C8000002402940394154D01A9284606F058FC2F
:102C90004FF4E053019302230293039404940A2314
:102CA000059301A9284606F04BFC0D4B5A6B42F0E8
:102CB00080025A6300945A6C42F480425A645B6CFE
:102CC00003F480430093009B224605214320FDF737
:102CD000F1FF4320FEF720F807B030BD00000240AE
:102CE0000038024008B5D0F8940200F09AFC08BD04
:102CF00008B5D0F8940200F09DFC08BD08B5D0F8E6
:102D0000940200F0B2FC08BD08B5D0F8940200F0BF
:102D1000CEFC08BD90F8BC33012B01D000207047D9
:102D200010B504461048C0F89442C4F8C0034FF0F0
:102D3000A0430360082383600323C360002303616F
:102D400002228261C36102F018FC40B9064803F018
:102D50000DF90146204600F061FC002010BDC121A4
:102D60000248FEF7A7FEF1E75C54002088B5000892
:102D700008B5D0F8C00303F0BFF818B1022803D09B
:102D8000022008BD002008BD012008BD08B5D0F80C
:102D9000C00303F0C7F818B1022803D0022008BD11
:102DA000002008BD012008BD08B5D0F8C00303F01D
:102DB000E2F818B1022803D0012008BD002008BDA8
:102DC000022008BD08B5D0F8C00303F0BDF818B163
:102DD000022803D0022008BD002008BD012008BD44
:102DE00008B5D0F8C00303F0BBF808BD10B584B037
:102DF000D0F8C003BDF8204002949DF81C40019417
:102E00009DF81840009402F06DFB20B1022804D018
:102E1000022004B010BD0020FBE70120F9E708B54F
:102E2000D0F8C00302F097FB18B1022803D00220AB
:102E300008BD002008BD012008BD10B584B0D0F841
:102E4000C0039DF824400394BDF820400294079CE1
:102E500001949DF81840009402F0CBFB20B10228A9
:102E600004D0022004B010BD0020FBE70120F9E7E8
:102E700008B5D0F8C00303F06CF808BD08B5C82049
:102E800000F0A6FD002008BD10B4D0F8C03301EB5F
:102E90008104E0000446184490F83B0048B901EB77
:102EA0008101C800034483F8512000205DF8044BE1
:102EB0007047234483F85020F7E7D0F8C03301EB84
:102EC0008100C20010461A4492F83B2032B901EB4F
:102ED0008101CA00134493F851007047034493F8EA
:102EE0005000704708B500F073FD08BD124A12F09B
:102EF000070F1ED0D11D21F00701C1F570531344F7
:102F00000A460E480260002141601344083B23F04A
:102F100007030B48036059601960991A51601360E8
:102F2000084B1960084B19604FF00042074B1A60BC
:102F300070474FF47053E4E7F4000020003D002098
:102F4000F0000020FC3C0020F83C0020F43C002075
:102F500010B4134B1A6882421BD359685C18A04204
:102F600003D1406801445960184641684418A242A0
:102F700013D10C4C2468A2420DD052681144416018
:102F80001A6812680260984200D018605DF8044B1D
:102F900070471346DEE70460F5E70260F3E700BF21
:102FA000003D0020F000002070B5044601F0C4FE92
:102FB0003A4B1B68BBB13A4B1B681C4263D1ACB1A6
:102FC000083414F0070F11D024F00704083404F07B
:102FD00007035BB14FF0500383F31188BFF36F8F8A
:102FE000BFF34F8FFEE7FFF781FFE4E7002C4CD0E3
:102FF0002C4B1B689C424AD82B4B1D6801E02B468A
:1030000015466A68944202D92A68002AF7D1234AF1
:10301000126895423DD01E6808362A681A606B68AF
:103020001B1B102B10D9281910F0070F08D04FF0D8
:10303000500383F31188BFF36F8FBFF34F8FFEE709
:1030400043606C60FFF784FF6A6816490B689B1A3F
:103050000B60164909688B4201D214490B60104B72
:103060001B6813436B6000232B6001F0FDFE16F01C
:10307000070F10D04FF0500383F31188BFF36F8F09
:10308000BFF34F8FFEE70026EFE70026EDE70026AF
:10309000EBE70026E9E7304670BD00BFF0000020F6
:1030A000F43C0020F83C0020003D0020FC3C0020C7
:1030B00080B338B50446A0F1080550F8042C164931
:1030C00009680A4208D14FF0500383F31188BFF317
:1030D0006F8FBFF34F8FFEE750F8080C40B14FF0F1
:1030E000500383F31188BFF36F8FBFF34F8FFEE759
:1030F00022EA010244F8042C01F01EFE54F8041CDC
:10310000064A13680B4413602846FFF721FF01F0BD
:10311000ABFE38BD704700BFF43C0020F83C0020F7
:10312000002306E003F1DE0200EB82020021516081
:1031300001330E2BF6D9002304E0C218002182F8D7
:103140001C110133B3F5007FF7D3002303704370E4
:1031500001228270C0F8B833027640218171437633
:1031600080F81C3380F81D231846704708B5037893
:10317000DBB20A2B00D008BDD0F87433002BFAD094
:103180009B699847F7E770B584B004464378072BEE
:1031900000F2C080DFE803F0042C365F687291A86B
:1031A0000821FDF792FA18B10125284604B070BD38
:1031B00094F82723A2710125657094F81C332179B6
:1031C00002920026019694F81D2300928022204648
:1031D00002F017F994F81C336179A27902920196F2
:1031E00094F81D2300923246204602F00AF9DCE7EB
:1031F0001221FDF76AFA002840F08E8002236370E6
:103200000125D2E70121FDF7AAFA08B10125CCE793
:103210000220FFF767FE012584F81C530323637027
:103220002179A37902930026019694F81D33009327
:103230002B468022204602F0E4F894F81C33617992
:10324000A2790292019694F81D23009232462046FC
:1032500002F0D7F8A9E70921FDF750FA00285DD15F
:10326000042363700125A0E7B0F83413FDF746FA94
:10327000002855D105236370012596E790F82E1399
:1032800089B1FF2300F58E72FDF751FA08B10125CF
:103290008BE70623637000220521D4F8C80304F0ED
:1032A00003F9012581E70623437000220521D0F8A8
:1032B000C80304F0F9F8012577E790F82F1349B116
:1032C000FF2300F58E72FDF732FA58BB07236370B7
:1032D00001256AE70723437000220521D0F8C803BF
:1032E00004F0E2F8012560E790F8301351B1FF23B4
:1032F00000F58E72FDF71BFA054600283FF455AF26
:10330000012552E700220521D0F8C80304F0CCF8CB
:1033100000254AE7012548E7012546E7012544E75E
:10332000012542E7012540E768B370B588B004463F
:103330000D4680F8BC230023C0F87433C0F87833FE
:10334000FFF7EEFE0DB1C4F8C453104D06AB95E87F
:10335000030083E803000021184604F09DF8C4F838
:10336000C80301AE08350FCD0FC62B683360214668
:1033700001A803F0E6FFC4F8CC032046FFF7CAFC1F
:10338000002008B070BD0220704700BFA4B4000840
:103390000A4661B1D0F878330BB102207047591C4E
:1033A000C0F87813DC3340F8232000207047022057
:1033B000704790F836338B4201D80220704780F86E
:1033C0001F130020704770B400240AE01A2505FB83
:1033D000060595F84253954210D0FF2A0ED00134CD
:1033E00064B2012C15DC26461A2505FB040595F868
:1033F00041538D42EAD0FF29F1D1E7E71A2505FBB9
:10340000060696F843539D4201D0FF2BE7D1E0B268
:1034100000E0FF2070BC704710B50446FFF7A8FC21
:1034200001212046FFF72AFD002010BD30B587B0EE
:10343000044602238DF817300378DBB20A2B4FD8ED
:10344000DFE803F0064E19CD4E51AF62717AC60027
:1034500090F81E33002B43D001250570C820FFF7DC
:1034600041FD2046FFF7AEFC00222946D4F8C803F0
:1034700004F01AF834E06420FFF734FD2046FFF72B
:1034800093FC84F81D03052323700021204601F0DE
:10349000CDFF60718021204601F0C8FF01462071F8
:1034A00094F81C33A27902920025019594F81D230B
:1034B00000928022204601F0A4FF94F81C33617929
:1034C000A2790292019594F81D2300922A46204683
:1034D00001F097FF2A460121D4F8C80303F0E4FF66
:1034E000002007B030BDFFF74EFE0028F8D10023C2
:1034F00084F81F3394F83133012B02D00723237053
:10350000EEE708232370EBE7D0F8C433002BE7D0B5
:10351000012198470823237000220521D4F8C8030D
:1035200003F0C2FFDCE790F83713FDF729F9002814
:10353000D6D109232370D3E7D0F8783363B10023C1
:10354000C0F874337BB1D4F874333BB39B68204626
:103550009847D8B10C23237000220521D4F8C80362
:1035600003F0A2FFBCE703F1DC0254F8222011793A
:1035700094F84123914202D00133DBB2E2E703F138
:10358000DC0254F82220C4F87423F5E706232370E4
:10359000D4F8C433032120469847DDE70C23237079
:1035A000DAE7D0F8743353B11B6998478DF81700E8
:1035B0009DF81730002B93D10A23237090E70C233A
:1035C000037000220521D0F8C80303F06DFF87E7E0
:1035D000D0F87433002B83D05B69984780E7FFF7FE
:1035E0009FFDD4F87433002B3FF47AAFDB6820469C
:1035F00098470023C4F8743372E700B585B00446D9
:103600004FF0FF32D4F8C81301A803F081FF019BEB
:10361000102BF5D12046FFF709FFF1E7C0F8B813EA
:10362000704708B5D0F8B8330133C0F8B833FFF7A6
:103630009DFD08BD10B5044603787BB9012380F8D1
:103640001E33D0F8C4330BB1042198470022012166
:10365000D4F8C80303F028FF002010BD0378DBB2C4
:10366000012BF3D102230370F0E710B50446FFF7F6
:103670008DFB2179204601F0EBFE6179204601F0B7
:10368000E7FE002384F81E33D4F8C43313B10521B8
:10369000204698472046FFF76BFB03232370002248
:1036A0000121D4F8C80303F0FFFE002010BD08B5C7
:1036B00000220221D0F8C80303F0F6FE002008BD66
:1036C00000F1080343604FF0FF328260C360036182
:1036D00000230360704700230361704743684B6019
:1036E0009A688A609A68516099600861036801333A
:1036F0000360704730B40D68B5F1FF3F02D000F1B0
:10370000080202E0026904E01A4653681C68A542F8
:10371000FAD253684B6099608A605160086103680F
:103720000133036030BC704703694268816891606F
:103730008268416851605A68904205D00022026157
:10374000186801381860704782685A60F6E7000010
:1037500030B583B00546036813F0050F06D12B681A
:1037600013F0020F3BD1002003B030BD0022504BBC
:103770001A6000F027F904464E4B1B6813F0006FE7
:1037800006D000F01FF9001B0228F5D90320EBE753
:103790006B6847F6C07292FAA2F2B2FA82F29340D4
:1037A000A9684FF0E04292FAA2F2B2FA82F201FA6C
:1037B00002F213433F4AC2F8843001223C4B1A60A4
:1037C00000F000F904463B4B1B6813F0006FC6D1B4
:1037D00000F0F8F8001B0228F5D90320C4E7002305
:1037E0000193344B1A6C42F080521A641B6C03F044
:1037F00080530193019B304A136843F48073136034
:1038000000F0E0F804462C4B1B6813F4807F06D1CF
:1038100000F0D8F8001B0228F5D90320A4E7254BB7
:103820001B6F13F4407312D0EA6802F440729342A3
:103830000DD0204B1A6F22F44072204901200860FD
:10384000002008601A671B6F13F0010F13D1EB689B
:1038500003F44072B2F5407F1ED0164A936823F4F9
:10386000F813936013490B6FEA68C2F30B0213431A
:103870000B67002078E700F0A5F804460D4B1B6F9E
:1038800013F0020FE3D100F09DF8001B41F28833E2
:103890009842F3D9032067E706498A6822F4F812B0
:1038A00023F0704323F4407313438B60DAE700BFC7
:1038B000680047420038024000700040400E474216
:1038C000032303601049D1F8842047F6C0731A40DF
:1038D00093FAA3F3B3FA83F322FA03F34360D1F824
:1038E000843003F0E0434FF0E04292FAA2F2B2FAE1
:1038F00082F2D34083608B6803F4F8130A6F02F4FA
:1039000040721343C36070470038024001282AD137
:10391000174B9B6813F4000303D0012B25D11548E6
:103920007047134B5B6813F4800F14D0104B5B6827
:1039300003F03F031048B0FBF3F30D4AD2F88400C4
:10394000C0F3881000FB03F0D2F88430C3F3027395
:10395000B0FBF3F07047064B5B6803F03F0307488A
:10396000B0FBF3F3E9E7002070470020704700BF89
:10397000003802400080BB0000127A000024F400EE
:1039800008B50B4B1A6842F400721A601A6842F4C8
:1039900080621A601A6842F480721A600320FDF790
:1039A00077F9002005F0E4FEFEF786FA002008BD56
:1039B000003C0240024A136801331360704700BFA5
:1039C000F4560020014B1868704700BFF4560020E1
:1039D00030B583B00190FFF7F5FF0546019CB4F1C7
:1039E000FF3F00D00134FFF7EDFF401BA042FAD3A8
:1039F00003B030BD30B583B00446036813F0010F47
:103A00003BD0A94B9B6803F00C03042B2CD0A64B96
:103A10009B6803F00C03082B21D06368B3F5803F4B
:103A20004FD0B3F5A02F52D09F4B1A6822F48032AA
:103A30001A601A6822F480221A606368002B50D042
:103A4000FFF7C0FF0546984B1B6813F4003F14D1E5
:103A5000FFF7B8FF401B6428F5D9032099E1924B8A
:103A60005B6813F4800FD8D08F4B1B6813F4003FB2
:103A700003D06368002B00F08981236813F0020FE4
:103A80005BD0894B9B6813F00C0F3ED0864B9B6834
:103A900003F00C03082B33D0E368002B74D0012211
:103AA000824B1A60FFF78EFF05467F4B1B6813F0B1
:103AB000020F5AD1FFF786FF401B0228F5D90320D9
:103AC00067E1794A136843F480331360B5E7764BB6
:103AD0001A6842F480221A601A6842F480321A602E
:103AE000ABE7FFF76FFF05466F4B1B6813F4003F12
:103AF000C3D0FFF767FF401B6428F5D9032048E1D6
:103B0000694B5B6813F4800FC6D1674B1B6813F0D9
:103B1000020F04D0E368012B01D0012039E1624893
:103B2000036823F0F8032169F82292FAA2F2B2FAAC
:103B300082F201FA02F213430360236813F0080FC4
:103B400046D0636993B30122594B1A60FFF73AFFDD
:103B50000546554B5B6F13F0020F39D1FFF732FF6B
:103B6000401B0228F5D9032013E14F48036823F0D6
:103B7000F8032169F82292FAA2F2B2FA82F201FA6B
:103B800002F213430360D8E70022484B1A60FFF7A4
:103B900019FF0546444B1B6813F0020FCDD0FFF709
:103BA00011FF401B0228F5D90320F2E00022404B10
:103BB0001A60FFF707FF05463B4B5B6F13F0020FE0
:103BC00006D0FFF7FFFE401B0228F5D90320E0E0F6
:103BD000236813F0040F20D1A369002B00F0D880D4
:103BE000314A926802F00C02082A00F0D480022BBD
:103BF00000F0808000222F4B1A60FFF7E3FE04469E
:103C0000294B1B6813F0007F00F0BE80FFF7DAFE3F
:103C1000001B0228F4D90320BBE000230193224BB0
:103C20001A6C42F080521A641B6C03F080530193AB
:103C3000019B214A136843F480731360FFF7C2FEAF
:103C400005461D4B1B6813F4807F06D1FFF7BAFEB3
:103C5000401B0228F5D903209BE0A368012B1DD04F
:103C6000052B2BD0104B1A6F22F001021A671A6F26
:103C700022F004021A67A36853B3FFF7A3FE0546B8
:103C8000094B1B6F13F0020FA6D1FFF79BFE401BE1
:103C900041F288339842F3D903207AE0024A136F45
:103CA00043F001031367E6E7003802400000474293
:103CB000800E47426000474200700040374B1A6F49
:103CC00042F004021A671A6F42F001021A67D2E743
:103CD000FFF778FE0546314B1B6F13F0020F3FF4E0
:103CE0007BAFFFF76FFE401B41F288339842F2D959
:103CF00003204EE000222A4B1A60FFF763FE0546C0
:103D0000264B1B6813F0007F06D0FFF75BFE401BBD
:103D10000228F5D903203CE0E369226A1343616A73
:103D200047F6C07292FAA2F2B2FA82F201FA02F2F5
:103D30001343A26A5208013A4FF4403191FAA1F1BB
:103D4000B1FA81F18A401343E16A4FF0706292FA4E
:103D5000A2F2B2FA82F201FA02F213430F4A53605E
:103D600001220F4B1A60FFF72DFE04460B4B1B6818
:103D700013F0007F06D1FFF725FE001B0228F5D9BE
:103D8000032006E0002004E0002002E0012000E023
:103D9000002003B030BD0120FBE700BF0038024027
:103DA00060004742214B9B6803F00C03042B3AD080
:103DB000082B01D01E4870471C4B586800F03F008C
:103DC0005B6813F4800F1ED01A4AB2FBF0F2174B57
:103DD000586847F6C073184093FAA3F3B3FA83F315
:103DE000D84000FB02F0114B5B6803F440334FF402
:103DF000403292FAA2F2B2FA82F2D34001335B006F
:103E0000B0FBF3F070470A4AB2FBF0F2074B586878
:103E100047F6C073184093FAA3F3B3FA83F3D8407C
:103E200000FB02F0DFE70348704700BF00380240A4
:103E30000024F40000127A00624B1B6803F00F03A9
:103E40008B4209D2CBB25F4A1370136803F00F03A1
:103E5000994201D00120704770B5036813F0020F3A
:103E600006D0594A936823F0F00384682343936093
:103E70000D460446036813F0010F64D04368012B1C
:103E800026D09A1E012A2AD94F4A126812F0020F30
:103E900000F096804C498A6822F0030213438B603D
:103EA000FFF790FD06466368012B1FD0022B2CD034
:103EB000032B39D0444B9B6813F00C0F43D0FFF712
:103EC00081FD801B41F288339842F3D9032070BDF5
:103ED0003D4A126812F4003FDCD1012070BD3A4A1D
:103EE000126812F0007FD5D1012070BD364B9B685F
:103EF00003F00C03042B26D0FFF764FD801B41F276
:103F000088339842F2D9032070BD2F4B9B6803F091
:103F10000C03082B17D0FFF755FD801B41F28833A7
:103F20009842F2D9032070BD274B9B6803F00C0325
:103F30000C2B08D0FFF746FD801B41F288339842D6
:103F4000F2D9032070BD1F4B1B6803F00F039D4285
:103F500009D2EAB21B4B1A701B6803F00F039D4293
:103F600001D0012070BD236813F0040F06D0164A5B
:103F7000936823F4E053E1680B439360236813F0E4
:103F8000080F07D0104A936823F46043216943EA7D
:103F9000C1039360FFF706FF0B4B9B6803F0F00330
:103FA000F02292FAA2F2B2FA82F2D340074AD35C2C
:103FB000D840074B1860002005F0DAFB002070BDE8
:103FC000012070BD003C024000380240B4B500083A
:103FD00024000020014B1868704700BF2400002017
:103FE00008B5FFF7F7FF074B9B6803F4E0534FF466
:103FF000E05292FAA2F2B2FA82F2D340024AD35CC1
:10400000D84008BD00380240C4B5000808B5FFF725
:10401000E1FF074B9B6803F460434FF4604292FA60
:10402000A2F2B2FA82F2D340024AD35CD84008BD71
:1040300000380240C4B500080F2303600B4B9A6898
:1040400002F0030242609A6802F0F00282609A680D
:1040500002F4E052C2609B68DB0803F4E0530361A2
:10406000034B1B6803F00F030B60704700380240DE
:10407000003C024008B5D0F87433DB6993F8522055
:10408000012A03D0022A19D0022008BD0022DA65D5
:1040900083F860200A2183F86210C3F86320C3F814
:1040A0006720C3F86B20C3F86F2083F863200120DA
:1040B00083F85000022283F8522008BDFCF7EAFB87
:1040C00008BD38B5D0F87433DC6994F85230012B50
:1040D00003D0022B21D001231DE00823E3658023B8
:1040E00084F860300A2384F862300023C4F8633017
:1040F000C4F86730C4F86B30C4F86F30252384F8F7
:104100006330012384F85030022284F8522004F1F5
:104110001002C4F88C20184638BD1546FCF7BAFBCF
:1041200003460028F7D1D4F88C10CA78887842EA80
:104130000022487842EA0042097842EA01622A6095
:10414000D4F88C10CA79897942EA0122AA80E2E780
:10415000F8B5D0F87433DC6994F85230012B03D0F1
:10416000022B28D0022524E02422E265802384F853
:1041700060300A2384F862300023C4F86730A4F862
:104180006B30122084F86300490184F8641084F8CD
:10419000653084F8663084F8672084F8683001253B
:1041A00084F85050022384F8523004F11003C4F80C
:1041B0008C302846F8BD1646FCF76CFB05460028F7
:1041C000F7D122220021304606F099FCD4F88C3039
:1041D0001B7803F01F037370D4F88C301B785B09D5
:1041E0003370D4F88C305B78DB09B370D4F88C3042
:1041F00053F8082F5B68C6F80320C6F80730D4F8D8
:104200008C3053F8107F58689968DB68F76030612C
:104210007161B361D4F88C301B6AC6F81D30C8E7F1
:1042200038B5D0F87433DC6994F85230012B03D0E0
:10423000022B2AD0022326E00E20E065802384F89A
:1042400060300A2384F862300023C4F86730C4F871
:104250006B30C4F86F30032284F86320490184F87E
:10426000641084F8653084F8663084F8670084F858
:104270006830012384F85030022284F8522004F17F
:104280001002C4F88C20184638BD1546FCF702FB16
:1042900003460028F7D1D4F88C20927802F00F0260
:1042A0002A70D4F88C20127B6A70D4F88C20527B50
:1042B000AA70E8E710B582B00192D0F87423D269F1
:1042C00092F85240012C03D0022C37D0022033E068
:1042D00004994902D165002182F860100A2082F811
:1042E0006200C2F86310C2F86710C2F86B10C2F81F
:1042F0006F102A2182F863109DF8071082F865106C
:104300009DF8061082F866109DF8051082F8671077
:104310009DF8041082F868109DF8111082F86A1058
:104320009DF8101082F86B10012082F850000221D5
:1043300082F85210C2F88C3002B010BDFCF7AAFA15
:10434000FAE710B582B00192D0F87423D26992F8DE
:104350005240012C03D0022C38D0022034E00499C2
:104360004902D165802182F860100A2182F862102A
:104370000021C2F86310C2F86710C2F86B10C2F8CF
:104380006F10282182F863109DF8071082F86510DD
:104390009DF8061082F866109DF8051082F86710E7
:1043A0009DF8041082F868109DF8111082F86A10C8
:1043B0009DF8101082F86B10012082F85000022145
:1043C00082F85210C2F88C3002B010BDFCF762FACD
:1043D000FAE730B405682C6824F480242C60046863
:1043E00063608368402B05D0036899600368DA60D6
:1043F00030BC704703689A600368D960F8E7000032
:104400000268D3B2103B0B49A1FB03131B090A49F5
:10441000C95CC165032B06D822F47F7222F0030227
:104420008265806D704722F47F7222F003020432AD
:104430008265F6E7ABAAAAAAA4B50008836A8269D6
:1044400092B9012B0AD01BB1022B01D0002070477A
:10445000C36A13F0807F2CD100207047C36AB3F188
:10446000C07F28D000207047B2F5005F05D0022B36
:1044700029D9032B15D000207047032B03D8DFE880
:1044800003F01C041C0A00207047C36A13F0807FED
:1044900015D100207047C36AB3F1C07F11D000204E
:1044A0007047C36A13F0807F01D00120704700205D
:1044B000704701207047012070470120704701209C
:1044C00070470120704701207047000070B5044616
:1044D000FFF778FA002C5DD00546002384F83430CD
:1044E000022384F835302268136823F00103136037
:1044F00023681A6812F0010F0AD0FFF763FA401B15
:104500000528F5D920236365032084F8350070BDA4
:104510001A68214911406268A0680243E0680243BA
:104520002069024360690243A0690243E0690243D3
:10453000206A02430A43616A042916D01A60266879
:10454000756925F00705636A1D43042B12D0756158
:104550002046FFF755FFE26D3F2393408360002024
:104560006065012384F8353070BDE16A206B01433A
:104570000A43E3E7A36A1D43E36A002BE7D0204622
:10458000FFF75CFF0028E2D040236365012084F838
:10459000350070BD012070BD3F8010F040B338B5CC
:1045A000044690F83530DBB2022B01D1022038BD31
:1045B0000268136823F001031360036800251D607F
:1045C00003685D6003689D600368DD6003681D61CA
:1045D000036821225A61FFF713FFE26D3F239340E6
:1045E0008360656584F8355084F83450284638BDBA
:1045F0000120704738B5856D90F83440012C31D0DA
:10460000012480F8344090F83540E4B2012C04D005
:10461000002380F83430022038BD0446022084F89C
:104620003500002060652046FFF7D3FEE26D3F2392
:104630009340AB602268136843F01603136022684E
:10464000536943F080035361236C23B122681368DC
:1046500043F0080313602268136843F001031360FA
:10466000002038BD022038BD70B50446866DFFF7C6
:10467000A9F994F83530DBB2022B06D080236365AC
:10468000002384F83430012070BD05462268136889
:1046900023F0160313602268536923F080035361EB
:1046A000236CE3B12268136823F0080313602268C7
:1046B000136823F00103136023681B6813F0010FD4
:1046C00011D0FFF77FF9401B0528F5D9202363653A
:1046D000002384F83430032084F8350070BDA36CC7
:1046E000002BDFD1E3E7E26D3F239340B36000206E
:1046F00084F83400012384F8353070BDF0B583B000
:10470000044600230193724B1D68724BA3FB0535D1
:10471000AD0A876D3E68C26D082393401E4210D0DB
:1047200003681A6812F0040F0BD01A6822F0040212
:104730001A60C26D08239340BB60436D43F00103D0
:104740004365E26D644B93401E4209D02268526972
:1047500012F0800F04D0BB60636D43F00203636509
:10476000E26D5E4B93401E4209D02268126812F03F
:10477000020F04D0BB60636D43F004036365E26D18
:10478000102393401E4224D02268126812F0080FB2
:104790001FD0BB6023681A6812F4802F0DD01B68ED
:1047A00013F4002F04D1236C9BB12046984710E0EE
:1047B000A36C73B1204698470BE01A6812F4807F0F
:1047C00003D11A6822F008021A60236C0BB120464C
:1047D0009847E26D202393401E4255D0226812680C
:1047E00012F0100F50D0BB6094F83530DBB2052BBF
:1047F0000ED023681A6812F4802F33D01B6813F48C
:10480000002F2AD1636C002B3ED0204698473BE016
:104810002268136823F0160313602268536923F09B
:1048200080035361236CA3B12268136823F008034B
:104830001360E26D3F239340BB60002384F8343063
:10484000012384F83530236D002B3FD02046984754
:104850003CE0A36C002BE7D1EBE7E36BA3B1204670
:10486000984711E01A6812F4807F09D11A6822F083
:1048700010021A60002384F83430012384F83530A4
:10488000E36B0BB120469847636DFBB1636D13F08A
:10489000010F17D0052384F835302268136823F000
:1048A00001031360019B013301939D4204D32368EC
:1048B0001B6813F0010FF5D1002384F83430012375
:1048C00084F83530E36C0BB12046984703B0F0BD57
:1048D00024000020B5814E1B0100800004008000F0
:1048E00008B5024B986BFFF709FF08BD785B002005
:1048F00008B502F05DFE08BD08B5024802F071FE81
:1049000008BD00BF085B002008B5024801F053FA5B
:1049100008BD00BF5C54002008B5044B03EB8002C7
:10492000526852680344187A904708BD603E0020E0
:1049300008B5084B1B5C0BB1002008BD054B0122DC
:104940001A5403EB8002526812681844007A9047A8
:1049500008BD00BF603E002038B5044C04EB800564
:104960006D68AD680444207AA84738BD603E0020D9
:1049700038B5044C04EB80056D68ED680444207A7A
:10498000A84738BD603E002010B5044B03EB8004FF
:10499000646824690344187AA04710BD603E002073
:1049A00010B582B00C4602A8002340F8043D012156
:1049B00002F0EAFC2060003018BF012002B010BDF8
:1049C00008B502F05DFD012008BD08B54FF47A710D
:1049D00002F0EEFC08B9012008BD002008BD08B5B2
:1049E00002F020FD08BD00000A4B1B681B684BB994
:1049F00001234BB9074B1B68DB68DB685A68064B21
:104A00001A6070470023F4E74FF0FF32024B1A6040
:104A1000704700BF0C3D0020E43D002010B5044667
:104A2000006BFEF745FB2046FEF742FB10BD2DE96B
:104A3000F04780469946089D099F0A9C266B02F123
:104A40008042013A06EB820626F0070600230F2B70
:104A500007D8C85CE21882F83400CA5C0AB1013396
:104A6000F5E7002384F84330062D00D90625E562DA
:104A700065644FF0000AC4F848A0201DFEF72BFE25
:104A800004F11800FEF727FE2461C5F10705A561B2
:104A90006462C4F84CA084F850A04A4641463046AF
:104AA00002F0AEFA206007B13C60BDE8F08700007C
:104AB00038B5002407E004EB840293000E48184444
:104AC000FEF7FEFD0134062CF5D90C4D2846FEF705
:104AD000F7FD0B4C2046FEF7F3FD0A48FEF7F0FD0C
:104AE0000948FEF7EDFD0948FEF7EAFD084B1D6099
:104AF000084B1C6038BD00BF143D0020B83D0020AD
:104B0000CC3D0020EC3D0020183E0020043E00205B
:104B10000C3D0020103D002010B5044602F09AFA2A
:104B2000204A1368013313601F4B1B68002B31D0E0
:104B30001E4B1B683BB91C4B1B68DA6AE36A9A423E
:104B400001D8194B1C601A4A136801331360E36AD9
:104B500001229A401749086802430A6003EB830365
:104B60009A00211D14481044FEF7B8FD02F094FA93
:104B70000E4B1B686BB10C4B1B68DA6AE36A9A42F6
:104B800007D24FF080520D4B1A60BFF34F8FBFF327
:104B90006F8F10BD044B1C601368012BD3D1FFF73E
:104BA00087FFD0E7A03D0020083D0020003E002008
:104BB000B03D0020B43D0020143D002004ED00E095
:104BC00070B504460E461D4B1D681D4B1868043019
:104BD000FEF7AAFD50B91A4B1B68DA6A012303FAE3
:104BE00002F218490B6823EA02030B60B4F1FF3F9D
:104BF00013D02C44124B1B685C60A54216D8124B94
:104C000018680F4B19680431FEF774FD0F4B1B68D1
:104C10009C4201D20D4B1C6070BD002EE9D0084BA8
:104C2000196804310A48FEF759FD70BD094B186830
:104C3000034B19680431FEF75DFD70BD2C3E00206A
:104C4000083D0020B43D00200C3D0020E43D002044
:104C5000043E0020103D00202DE9F04385B00646BB
:104C60000F46154698469000FEF79EF900B3814620
:104C70005420FEF799F90446B0B1C0F83090CCB199
:104C80000023039302940D9B01930C9B00934346D6
:104C90002A4639463046FFF7CAFE2046FFF73CFF5A
:104CA000012005B0BDE8F0834846FEF701FAE6E7CB
:104CB0000024E4E74FF0FF30F3E7000000B583B0D5
:104CC000174B019300230093802216491648FFF7E3
:104CD000C3FF012805D0B0F1FF3F17D003B05DF846
:104CE00004FB4FF0500383F31188BFF36F8FBFF3C2
:104CF0004F8F4FF0FF320D4B1A6001220C4B1A60A0
:104D000000220C4B1A6002F041FAE7E74FF0500323
:104D100083F31188BFF36F8FBFF34F8FFEE700BFA0
:104D2000E03D0020ACB5000811500008E43D002033
:104D3000003E00202C3E0020024A1368013313601D
:104D4000704700BFAC3D0020F8B53C4B1B68002B02
:104D500068D13B4B1D6801351D60C5B9394B1B68D7
:104D60001B6843B14FF0500383F31188BFF36F8F7B
:104D7000BFF34F8FFEE7334A1168334B186810605A
:104D80001960324A136801331360FFF72DFE304B70
:104D90001B689D423AD200242E4B1B68DB6A03EB52
:104DA00083039A002C4B9B58012B40D901243EE0F1
:104DB0000124244B1B681B6853B3002353BB214BB6
:104DC0001B68DB68DE6873689D4228D3371D384650
:104DD000FEF7AAFCB36A1BB106F11800FEF7A4FCAB
:104DE000F36A01229A401D49086802430A6003EBF6
:104DF00083039A00394618481044FEF76FFCF26AA4
:104E0000144B1B68DB6A9A42D2D2D2E70024D0E767
:104E10000123D3E74FF0FF320D4B1A60BCE70C4A79
:104E20001360B9E70E4A13680133136000240D4B79
:104E30001B6803B101242046F8BD00BFAC3D002033
:104E40002C3E00200C3D0020103D0020E83D0020BD
:104E5000E43D0020083D0020143D0020B43D00202A
:104E6000A83D0020303E002038B5354B1B6843B9C3
:104E70004FF0500383F31188BFF36F8FBFF34F8F51
:104E8000FEE702F0E7F82E4B1A68013A1A601B6839
:104E9000002B50D12B4B1B6823B9002402F0FCF8E7
:104EA000204638BD0024284B1B681BB3264BDB680B
:104EB000DC6804F11800FEF737FC251D2846FEF7D4
:104EC00033FCE36A01229A402049086802430A60E1
:104ED00003EB83039A0029461D481044FEF7FEFBAE
:104EE000E26A1C4B1B68DB6A9A42DCD301221A4B34
:104EF0001A60D8E70CB1FFF777FD184B1C6874B93E
:104F0000154B1B68CBB14FF08052154B1A60BFF3A5
:104F10004F8FBFF36F8F0124C0E7013C07D0FFF72D
:104F200013FF0028F9D001220B4B1A60F5E700228D
:104F30000A4B1A60E4E70024B0E70024AEE700BFA4
:104F4000AC3D0020A03D0020EC3D0020B43D002001
:104F5000143D0020083D0020303E0020A83D0020E8
:104F600004ED00E010B5A8B10446104B1B6843B136
:104F70004FF0500383F31188BFF36F8FBFF34F8F50
:104F8000FEE7FFF7D9FE00212046FFF719FEFFF7E5
:104F90006BFF00E0002038B94FF08052044B1A60DC
:104FA000BFF34F8FBFF36F8F10BD00BFAC3D00202C
:104FB00004ED00E0134B1B6813B310B5FFF7BCFE04
:104FC000114B1C68FFF750FF24B90E4B1B68002BD8
:104FD000F4D110BD02F03EF80B4BDB68DC68201DFD
:104FE000FEF7A2FB094A1368013B1360054A1368E8
:104FF000013B136002F050F82046FFF70FFDE4E795
:10500000704700BFA43D0020183E0020A03D0020B6
:1050100008B5FFF7CFFF064B1B68012BF9D94FF0FE
:105020008052044B1A60BFF34F8FBFF36F8FF0E7CE
:10503000143D002004ED00E0214B1B68C3B90022A1
:10504000204B1A60204B1B68B3FA83F3DBB2C3F129
:105050001F0303EB83018A001C498A5862B94FF091
:10506000500383F31188BFF36F8FBFF34F8FFEE7B9
:105070000122144B1A60704710B414489A00D418D7
:10508000A10001444C6864684C601A4491000831E6
:10509000084484420BD003EB83039A000B4B134468
:1050A0005B68DA680A4B1A605DF8044B7047606809
:1050B00003EB83029100054A0A445060EBE700BF0E
:1050C000AC3D0020303E0020B43D0020143D0020C7
:1050D000083D002040B94FF0500383F31188BFF31F
:1050E0006F8FBFF34F8FFEE710B50C46044B196866
:1050F0001831FEF7FFFA01212046FFF761FD10BDD0
:10510000083D002038B5C368DC6824B304F11805F5
:105110002846FEF709FB184B1B682BBB251D2846AC
:10512000FEF702FBE36A01229A4014490868024331
:105130000A6003EB83039A00294611481044FEF7E6
:10514000CDFAE26A0F4B1B68DB6A9A4211D9012043
:105150000D4B186038BD4FF0500383F31188BFF337
:105160006F8FBFF34F8FFEE729460848FEF7B6FA68
:10517000E7E7002038BD00BFAC3D0020B43D002073
:10518000143D0020083D0020303E0020EC3D002072
:1051900030B1084A12680260074A126842607047DC
:1051A0004FF0500383F31188BFF36F8FBFF34F8F1E
:1051B000FEE700BFE83D00202C3E002038B5C0B11E
:1051C0000446F9B10D4601F045FF1A4B19682B68EA
:1051D000B3F1FF3F2AD02068174A1268904202D0EC
:1051E0006268914224D26268881A834213D80124EB
:1051F00018E04FF0500383F31188BFF36F8FBFF3B4
:105200004F8FFEE74FF0500383F31188BFF36F8F8A
:10521000BFF34F8FFEE7521A13442B602046FFF76F
:10522000B7FF002401F038FF204638BD0024F9E71D
:105230000124F7E72C3E0020E83D00200122014B2D
:105240001A607047303E0020054B1B6823B1054BA8
:105250001B681BB90220704701207047002070476F
:10526000003E0020AC3D0020002847D038B5044661
:10527000C36A23490968C96A8B4216D28169002929
:1052800005DB1F490968C96AC1F1070181616069CD
:1052900003EB830399001B4B0B44984206D0002379
:1052A00033B9174B1B68DB6AE36238BD0123F7E7AC
:1052B000251D2846FEF738FA68B9E36A03EB830137
:1052C0008A0010498A5832B901229A400E490B6867
:1052D00023EA02030B600A4B1B68DB6AE3620122CC
:1052E0009A400949086802430A6003EB83039A0065
:1052F000294604481044FEF7F1F938BD704700BF55
:10530000083D0020143D0020B43D002000284AD074
:1053100038B50446274A1268904208D04FF050032F
:1053200083F31188BFF36F8FBFF34F8FFEE7826C5B
:1053300042B94FF0500383F31188BFF36F8FBFF36F
:105340004F8FFEE7013A8264C06A616C88422CD0BC
:105350006ABB251D2846FEF7E7F970B9E26A02EB41
:1053600082018B001449CB583BB9012303FA02F2A6
:1053700012490B6823EA02030B60636CE362C3F11A
:105380000702A261012404FA03F20C4908680243EF
:105390000A6003EB83039A00294607481044FEF78E
:1053A0009DF9204638BD00207047002038BD002000
:1053B00038BD00BF083D0020143D0020B43D002052
:1053C000054B1B6823B1044B1A68936C013393643B
:1053D000014B1868704700BF083D002000230A2BCE
:1053E0000CD803F1DE0200EB8202526812F4004F87
:1053F00002D00133DBB2F2E798B270474FF6FF708C
:10540000704710B584B0BDF8204002949DF81C4050
:1054100001949DF818400094FDF7E8FC002004B0CA
:1054200010BD08B5FDF7FBFC002008BD38B50446EB
:105430000D46FFF7D3FF4FF6FF73984206D045F4B1
:10544000004500F1DE0304EB83046560C0B238BDA3
:105450000A2906D8DE3100EB81014B68C3F30E0345
:105460004B60002070470000F8B50668346A04F00D
:105470000F07C4F34343C4F30A14022B2ED16CB3B9
:1054800007EB8702D3000344596C39B30546224623
:105490003046FBF70DFDBA003A44D3002B445A6C5A
:1054A00022445A64DA6C2244DA6406EB4713D3F8D8
:1054B00010150B4A0A408AB1D3F8002522F0804229
:1054C00042F00042C3F80025BB00D919CA002A44A3
:1054D00092F8503083F0010382F85030F8BD00BFDD
:1054E0000000F81FF0B585B09DF828609DF82C707D
:1054F000BDF830E090F89042012C02D1022005B0B6
:10550000F0BD0546012085F89002880000EB010CF3
:105510004FEACC042C4484F83830A4F840E084F8F6
:10552000391084F83F7002F07F0C84F83AC04FEADB
:10553000D21C84F83BC00844C4002C4484F83C606E
:10554000CDF808E0019700962868FBF7CAFD002314
:1055500085F89032D3E790F89032012B01D10220E8
:10556000704710B50446012380F890320068FBF7BD
:105570007AFF002084F8900210BD002837D0F0B5E3
:105580008BB00646032380F89132FDF76FFB30683D
:10559000FBF738FC344654F810EB6D460FCC0FC5C2
:1055A0000FCC0FC594E8030085E80300371D97E88A
:1055B0000E007046FBF7E2FB01213068FBF728FC88
:1055C000344654F810EB6D460FCC0FC50FCC0FC509
:1055D00094E8030085E8030097E80E007046FBF7A7
:1055E000A1FC012386F8913200200BB0F0BD012010
:1055F0007047F8B59DF81870BDF820609DF824E05C
:105600008D000D44EC00044484F83B2084F83F30C6
:105610006FB901EB8105EC000444032584F8425086
:10562000032B00F2B380DFE803F00AAA3E7B01EB14
:105630008105EC000444022584F84250F0E7012F74
:1056400040F0A480002A40F0A18036B901EB81022D
:10565000D3000344012283F8512001EB8102D300DF
:10566000034493F85130B3B901EB8102D3000344F2
:10567000002283F8422001EB8102D300034493F817
:105680005C30022B00F0828001EB8102D3000344E6
:1056900083F83DE07AE001EB8102D300034402226B
:1056A00083F84220E7E722BB01EB8102D3000344E9
:1056B00093F85130ABB901EB8102D30003440022CF
:1056C00083F8422001EB8102D300034493F85C305D
:1056D000022B5BD001EB8102D300034483F83DE051
:1056E00054E001EB8102D3000344022283F84220FC
:1056F000E8E701EB8102D300034493F850303BB953
:1057000001EB8102D3000344002283F842203DE0F4
:1057100001EB8102D3000344022283F8422035E0EA
:10572000B2B901EB8102D300034493F851303BB985
:1057300001EB8102D3000344002283F8422025E0DC
:1057400001EB8102D3000344022283F842201DE0D2
:1057500001EB8102D300034493F850303BB901EBD5
:105760008102D3000344002283F842200EE001EBC3
:105770008102D3000344022283F8422006E001EBB9
:105780008102D3000344002283F842208A00541887
:10579000E3000344079C5C649E64002483F85C403F
:1057A000DC6483F8391083F85D401144CB0003F1C9
:1057B0003801027C01440068FBF708FDF8BD30B5F4
:1057C00083B005460468D4F840340193D4F84034DB
:1057D0000093009B23F02E030093019B13F0020F14
:1057E00007D0019B13F0010F25D1009B43F002036A
:1057F0000093019B13F0080F10D0009B43F00803A7
:105800000093019B13F0040F31D0AB69022B19D028
:10581000EB68032B26D02846FDF76AFA019B13F0AC
:10582000200F03D0009B43F020030093009BC4F89B
:10583000403403B030BDA36923F00053A361FDF7EA
:1058400057FAD2E7019B03F4C023B3F5802F04D0AD
:1058500001212868FBF7DCFBDDE702212868FBF764
:10586000D7FBD8E74EF66022C4F80424D3E7D4F877
:10587000403423F02E03C4F840342A68936943F07F
:1058800000539361CAE7F8B506460D46076807EB73
:10589000411707F5A064A36813F0040F41D0042357
:1058A000A360E36843F00203E360A36813F4007F9E
:1058B0006DD1A36813F0010F00F08A80336963B1E2
:1058C000AB005919CA003244916C2269C2F312022A
:1058D000891A2B44DA003244D164AA002A44D30046
:1058E0003344012283F85D2000219965A26093F87A
:1058F0003F30002B57D0022B55D0032B5DD1D7F86A
:10590000003543F00053C7F8003505EB8502D3009E
:105910003344012283F85C2029463046FDF7F4F930
:105920004BE0A36813F0200F02D02023A360BCE754
:10593000A36813F0080F17D1A36813F4806FB4D0D5
:10594000E36843F00203E3600068FBF78CFD10237B
:10595000A36005EB8502D3003344082283F85D2061
:105960004FF48063A360A0E7E36843F00203E360C1
:1059700001EB8102D3000344052283F85D2010234C
:10598000A3600823A3600068FBF76DFD8DE7E36863
:1059900043F00203E36029463068FBF764FD4FF4EF
:1059A0000073A360F8BDE36843F00203E360294697
:1059B0003068FBF758FD1023A360AB005919CA00EB
:1059C000324492F8503083F0010382F85030F8BD31
:1059D000A36813F0020F50D0E36823F00203E360E2
:1059E00005EB8502D300334493F85D30012B2CD0B6
:1059F000052B32D0062B01D0082B19D1AA002A443E
:105A0000D30033449A6D511C9965032A2DD9AA00FD
:105A10002A44D300334400229A65042283F85C2090
:105A2000D7F8003523F0804343F00043C7F8003532
:105A30000223A36005EB8502D300334493F85C2076
:105A400029463046FDF760F9F8BD05EB8502D30025
:105A50003344012283F85C20EAE705EB8502D3009A
:105A60003344052283F85C20E2E705EB8502D3008E
:105A70003344022283F85C20D2E7A36813F0800F3E
:105A800026D1A36813F0100F21D005EB8502D300B7
:105A9000334493F83F30032B32D0AB005919CA007E
:105AA0003244032182F85D101022A2601D4405FAE1
:105AB00001F31E4496F83F300BB1022B07D1D7F803
:105AC000003523F0804343F00043C7F80035F8BDAC
:105AD000E36843F00203E360AB005919CA003244A3
